{
  "_format": "hh-sol-artifact-1",
  "contractName": "FundMe",
  "sourceName": "contracts/FundMe.sol",
  "abi": [
    {
      "inputs": [
        {
          "internalType": "uint256",
          "name": "_platformFeePercent",
          "type": "uint256"
        }
      ],
      "stateMutability": "nonpayable",
      "type": "constructor"
    },
    {
      "inputs": [],
      "name": "FundMe__AmountMustAboveZero",
      "type": "error"
    },
    {
      "inputs": [],
      "name": "FundMe__CampaignDoesNotExist",
      "type": "error"
    },
    {
      "inputs": [],
      "name": "FundMe__CampaignHasClosed",
      "type": "error"
    },
    {
      "inputs": [],
      "name": "FundMe__CampaignHasExpired",
      "type": "error"
    },
    {
      "inputs": [],
      "name": "FundMe__CampaignNotApproved",
      "type": "error"
    },
    {
      "inputs": [],
      "name": "FundMe__CampaignNotExpired",
      "type": "error"
    },
    {
      "inputs": [],
      "name": "FundMe__CampaignNotOpen",
      "type": "error"
    },
    {
      "inputs": [],
      "name": "FundMe__CostBelowMinimum",
      "type": "error"
    },
    {
      "inputs": [],
      "name": "FundMe__DescriptionRequired",
      "type": "error"
    },
    {
      "inputs": [],
      "name": "FundMe__ImageURLRequired",
      "type": "error"
    },
    {
      "inputs": [],
      "name": "FundMe__InvalidExpireDate",
      "type": "error"
    },
    {
      "inputs": [],
      "name": "FundMe__InvalidPlatformFee",
      "type": "error"
    },
    {
      "inputs": [],
      "name": "FundMe__NoRefundAvailable",
      "type": "error"
    },
    {
      "inputs": [],
      "name": "FundMe__NotCampaignOwner",
      "type": "error"
    },
    {
      "inputs": [],
      "name": "FundMe__TitleRequired",
      "type": "error"
    },
    {
      "inputs": [],
      "name": "FundMe__TransferFailed",
      "type": "error"
    },
    {
      "inputs": [
        {
          "internalType": "address",
          "name": "owner",
          "type": "address"
        }
      ],
      "name": "OwnableInvalidOwner",
      "type": "error"
    },
    {
      "inputs": [
        {
          "internalType": "address",
          "name": "account",
          "type": "address"
        }
      ],
      "name": "OwnableUnauthorizedAccount",
      "type": "error"
    },
    {
      "anonymous": false,
      "inputs": [
        {
          "indexed": false,
          "internalType": "uint256",
          "name": "id",
          "type": "uint256"
        },
        {
          "indexed": false,
          "internalType": "string",
          "name": "actionType",
          "type": "string"
        },
        {
          "indexed": true,
          "internalType": "address",
          "name": "executor",
          "type": "address"
        },
        {
          "indexed": false,
          "internalType": "uint256",
          "name": "timestamp",
          "type": "uint256"
        }
      ],
      "name": "Action",
      "type": "event"
    },
    {
      "anonymous": false,
      "inputs": [
        {
          "indexed": true,
          "internalType": "address",
          "name": "previousOwner",
          "type": "address"
        },
        {
          "indexed": true,
          "internalType": "address",
          "name": "newOwner",
          "type": "address"
        }
      ],
      "name": "OwnershipTransferred",
      "type": "event"
    },
    {
      "inputs": [
        {
          "internalType": "uint256",
          "name": "id",
          "type": "uint256"
        }
      ],
      "name": "backCampaign",
      "outputs": [],
      "stateMutability": "payable",
      "type": "function"
    },
    {
      "inputs": [
        {
          "internalType": "uint256",
          "name": "_platformFeePercent",
          "type": "uint256"
        }
      ],
      "name": "changePlatformFee",
      "outputs": [],
      "stateMutability": "nonpayable",
      "type": "function"
    },
    {
      "inputs": [
        {
          "internalType": "uint256",
          "name": "id",
          "type": "uint256"
        },
        {
          "internalType": "address",
          "name": "owner",
          "type": "address"
        }
      ],
      "name": "claimRefund",
      "outputs": [],
      "stateMutability": "nonpayable",
      "type": "function"
    },
    {
      "inputs": [
        {
          "internalType": "string",
          "name": "title",
          "type": "string"
        },
        {
          "internalType": "string",
          "name": "description",
          "type": "string"
        },
        {
          "internalType": "string",
          "name": "imageURL",
          "type": "string"
        },
        {
          "internalType": "uint256",
          "name": "cost",
          "type": "uint256"
        },
        {
          "internalType": "uint256",
          "name": "expiresAt",
          "type": "uint256"
        }
      ],
      "name": "createCampaign",
      "outputs": [],
      "stateMutability": "nonpayable",
      "type": "function"
    },
    {
      "inputs": [
        {
          "internalType": "uint256",
          "name": "id",
          "type": "uint256"
        }
      ],
      "name": "deleteCampaign",
      "outputs": [],
      "stateMutability": "nonpayable",
      "type": "function"
    },
    {
      "inputs": [
        {
          "internalType": "uint256",
          "name": "id",
          "type": "uint256"
        }
      ],
      "name": "getBackers",
      "outputs": [
        {
          "components": [
            {
              "internalType": "address",
              "name": "owner",
              "type": "address"
            },
            {
              "internalType": "uint256",
              "name": "contribution",
              "type": "uint256"
            },
            {
              "internalType": "uint256",
              "name": "timestamp",
              "type": "uint256"
            },
            {
              "internalType": "bool",
              "name": "refunded",
              "type": "bool"
            }
          ],
          "internalType": "struct FundMe.backerStruct[]",
          "name": "",
          "type": "tuple[]"
        }
      ],
      "stateMutability": "view",
      "type": "function"
    },
    {
      "inputs": [
        {
          "internalType": "uint256",
          "name": "id",
          "type": "uint256"
        }
      ],
      "name": "getCampaign",
      "outputs": [
        {
          "components": [
            {
              "internalType": "uint256",
              "name": "id",
              "type": "uint256"
            },
            {
              "internalType": "address",
              "name": "owner",
              "type": "address"
            },
            {
              "internalType": "string",
              "name": "title",
              "type": "string"
            },
            {
              "internalType": "string",
              "name": "description",
              "type": "string"
            },
            {
              "internalType": "string",
              "name": "imageURL",
              "type": "string"
            },
            {
              "internalType": "uint256",
              "name": "cost",
              "type": "uint256"
            },
            {
              "internalType": "uint256",
              "name": "raised",
              "type": "uint256"
            },
            {
              "internalType": "uint256",
              "name": "timestamp",
              "type": "uint256"
            },
            {
              "internalType": "uint256",
              "name": "expiresAt",
              "type": "uint256"
            },
            {
              "internalType": "uint256",
              "name": "numOfBackers",
              "type": "uint256"
            },
            {
              "internalType": "enum FundMe.statusEnum",
              "name": "status",
              "type": "uint8"
            }
          ],
          "internalType": "struct FundMe.campaignStruct",
          "name": "",
          "type": "tuple"
        }
      ],
      "stateMutability": "view",
      "type": "function"
    },
    {
      "inputs": [],
      "name": "getCampaigns",
      "outputs": [
        {
          "components": [
            {
              "internalType": "uint256",
              "name": "id",
              "type": "uint256"
            },
            {
              "internalType": "address",
              "name": "owner",
              "type": "address"
            },
            {
              "internalType": "string",
              "name": "title",
              "type": "string"
            },
            {
              "internalType": "string",
              "name": "description",
              "type": "string"
            },
            {
              "internalType": "string",
              "name": "imageURL",
              "type": "string"
            },
            {
              "internalType": "uint256",
              "name": "cost",
              "type": "uint256"
            },
            {
              "internalType": "uint256",
              "name": "raised",
              "type": "uint256"
            },
            {
              "internalType": "uint256",
              "name": "timestamp",
              "type": "uint256"
            },
            {
              "internalType": "uint256",
              "name": "expiresAt",
              "type": "uint256"
            },
            {
              "internalType": "uint256",
              "name": "numOfBackers",
              "type": "uint256"
            },
            {
              "internalType": "enum FundMe.statusEnum",
              "name": "status",
              "type": "uint8"
            }
          ],
          "internalType": "struct FundMe.campaignStruct[]",
          "name": "",
          "type": "tuple[]"
        }
      ],
      "stateMutability": "view",
      "type": "function"
    },
    {
      "inputs": [],
      "name": "getPlatformFee",
      "outputs": [
        {
          "internalType": "uint256",
          "name": "",
          "type": "uint256"
        }
      ],
      "stateMutability": "view",
      "type": "function"
    },
    {
      "inputs": [],
      "name": "getStats",
      "outputs": [
        {
          "components": [
            {
              "internalType": "uint256",
              "name": "totalCampaigns",
              "type": "uint256"
            },
            {
              "internalType": "uint256",
              "name": "totalBackings",
              "type": "uint256"
            },
            {
              "internalType": "uint256",
              "name": "totalDonations",
              "type": "uint256"
            }
          ],
          "internalType": "struct FundMe.statsStruct",
          "name": "",
          "type": "tuple"
        }
      ],
      "stateMutability": "view",
      "type": "function"
    },
    {
      "inputs": [],
      "name": "owner",
      "outputs": [
        {
          "internalType": "address",
          "name": "",
          "type": "address"
        }
      ],
      "stateMutability": "view",
      "type": "function"
    },
    {
      "inputs": [
        {
          "internalType": "uint256",
          "name": "id",
          "type": "uint256"
        }
      ],
      "name": "payoutCampaign",
      "outputs": [],
      "stateMutability": "nonpayable",
      "type": "function"
    },
    {
      "inputs": [
        {
          "internalType": "uint256",
          "name": "id",
          "type": "uint256"
        }
      ],
      "name": "refundExpiredCampaign",
      "outputs": [],
      "stateMutability": "nonpayable",
      "type": "function"
    },
    {
      "inputs": [],
      "name": "renounceOwnership",
      "outputs": [],
      "stateMutability": "nonpayable",
      "type": "function"
    },
    {
      "inputs": [
        {
          "internalType": "address",
          "name": "newOwner",
          "type": "address"
        }
      ],
      "name": "transferOwnership",
      "outputs": [],
      "stateMutability": "nonpayable",
      "type": "function"
    },
    {
      "inputs": [
        {
          "internalType": "uint256",
          "name": "id",
          "type": "uint256"
        },
        {
          "internalType": "string",
          "name": "title",
          "type": "string"
        },
        {
          "internalType": "string",
          "name": "description",
          "type": "string"
        },
        {
          "internalType": "string",
          "name": "imageURL",
          "type": "string"
        }
      ],
      "name": "updateCampaign",
      "outputs": [],
      "stateMutability": "nonpayable",
      "type": "function"
    }
  ],
  "bytecode": "0x60806040523480156200001157600080fd5b5060405162004183380380620041838339818101604052810190620000379190620001d1565b33600073ffffffffffffffffffffffffffffffffffffffff168173ffffffffffffffffffffffffffffffffffffffff1603620000ad5760006040517f1e4fbdf7000000000000000000000000000000000000000000000000000000008152600401620000a4919062000248565b60405180910390fd5b620000be81620000cd60201b60201c565b50806001819055505062000265565b60008060009054906101000a900473ffffffffffffffffffffffffffffffffffffffff169050816000806101000a81548173ffffffffffffffffffffffffffffffffffffffff021916908373ffffffffffffffffffffffffffffffffffffffff1602179055508173ffffffffffffffffffffffffffffffffffffffff168173ffffffffffffffffffffffffffffffffffffffff167f8be0079c531659141344cd1fd0a4f28419497f9722a3daafe3b4186f6b6457e060405160405180910390a35050565b600080fd5b6000819050919050565b620001ab8162000196565b8114620001b757600080fd5b50565b600081519050620001cb81620001a0565b92915050565b600060208284031215620001ea57620001e962000191565b5b6000620001fa84828501620001ba565b91505092915050565b600073ffffffffffffffffffffffffffffffffffffffff82169050919050565b6000620002308262000203565b9050919050565b620002428162000223565b82525050565b60006020820190506200025f600083018462000237565b92915050565b613f0e80620002756000396000f3fe6080604052600436106100f35760003560e01c8063c59d48471161008a578063d7a5791a11610059578063d7a5791a146102f5578063e3ae89a31461031e578063f2fde38b14610347578063f356446814610370576100f3565b8063c59d484714610248578063c8771d9f14610273578063c9168b721461028f578063cec03ce3146102cc576100f3565b80638da5cb5b116100c65780638da5cb5b146101a0578063980f2e66146101cb578063a6b03633146101f4578063af2a75621461021f576100f3565b80635598f8cc146100f85780636ea8bc1014610135578063715018a6146101605780637597019314610177575b600080fd5b34801561010457600080fd5b5061011f600480360381019061011a9190612bd8565b610399565b60405161012c9190612e59565b60405180910390f35b34801561014157600080fd5b5061014a610698565b6040516101579190612e8a565b60405180910390f35b34801561016c57600080fd5b506101756106a2565b005b34801561018357600080fd5b5061019e60048036038101906101999190612bd8565b6106b6565b005b3480156101ac57600080fd5b506101b5610994565b6040516101c29190612eb4565b60405180910390f35b3480156101d757600080fd5b506101f260048036038101906101ed9190613004565b6109bd565b005b34801561020057600080fd5b50610209610d40565b6040516102169190613292565b60405180910390f35b34801561022b57600080fd5b5061024660048036038101906102419190612bd8565b611023565b005b34801561025457600080fd5b5061025d6111e9565b60405161026a91906132f6565b60405180910390f35b61028d60048036038101906102889190612bd8565b611221565b005b34801561029b57600080fd5b506102b660048036038101906102b19190612bd8565b6116b0565b6040516102c39190613430565b60405180910390f35b3480156102d857600080fd5b506102f360048036038101906102ee919061347e565b6117ef565b005b34801561030157600080fd5b5061031c60048036038101906103179190612bd8565b611e47565b005b34801561032a57600080fd5b50610345600480360381019061034091906134be565b611ea1565b005b34801561035357600080fd5b5061036e60048036038101906103699190613579565b612219565b005b34801561037c57600080fd5b5061039760048036038101906103929190612bd8565b61229f565b005b6103a1612aab565b6005805490508211156103e0576040517fcbe7e4f900000000000000000000000000000000000000000000000000000000815260040160405180910390fd5b600582815481106103f4576103f36135a6565b5b90600052602060002090600b020160405180610160016040529081600082015481526020016001820160009054906101000a900473ffffffffffffffffffffffffffffffffffffffff1673ffffffffffffffffffffffffffffffffffffffff1673ffffffffffffffffffffffffffffffffffffffff16815260200160028201805461047e90613604565b80601f01602080910402602001604051908101604052809291908181526020018280546104aa90613604565b80156104f75780601f106104cc576101008083540402835291602001916104f7565b820191906000526020600020905b8154815290600101906020018083116104da57829003601f168201915b5050505050815260200160038201805461051090613604565b80601f016020809104026020016040519081016040528092919081815260200182805461053c90613604565b80156105895780601f1061055e57610100808354040283529160200191610589565b820191906000526020600020905b81548152906001019060200180831161056c57829003601f168201915b505050505081526020016004820180546105a290613604565b80601f01602080910402602001604051908101604052809291908181526020018280546105ce90613604565b801561061b5780601f106105f05761010080835404028352916020019161061b565b820191906000526020600020905b8154815290600101906020018083116105fe57829003601f168201915b505050505081526020016005820154815260200160068201548152602001600782015481526020016008820154815260200160098201548152602001600a820160009054906101000a900460ff16600481111561067b5761067a612ce5565b5b600481111561068d5761068c612ce5565b5b815250509050919050565b6000600154905090565b6106aa612477565b6106b460006124fe565b565b6005805490508111156106f5576040517fcbe7e4f900000000000000000000000000000000000000000000000000000000815260040160405180910390fd5b3373ffffffffffffffffffffffffffffffffffffffff16600582815481106107205761071f6135a6565b5b90600052602060002090600b020160010160009054906101000a900473ffffffffffffffffffffffffffffffffffffffff1673ffffffffffffffffffffffffffffffffffffffff16141580156107a95750610779610994565b73ffffffffffffffffffffffffffffffffffffffff163373ffffffffffffffffffffffffffffffffffffffff1614155b156107e0576040517f93a55c3800000000000000000000000000000000000000000000000000000000815260040160405180910390fd5b600060048111156107f4576107f3612ce5565b5b60058281548110610808576108076135a6565b5b90600052602060002090600b0201600a0160009054906101000a900460ff16600481111561083957610838612ce5565b5b14610870576040517f27a275de00000000000000000000000000000000000000000000000000000000815260040160405180910390fd5b4260058281548110610885576108846135a6565b5b90600052602060002090600b02016008015410156108cf576040517f98e885a100000000000000000000000000000000000000000000000000000000815260040160405180910390fd5b6003600582815481106108e5576108e46135a6565b5b90600052602060002090600b0201600a0160006101000a81548160ff0219169083600481111561091857610917612ce5565b5b02179055506002600001600081548092919061093390613664565b9190505550610941816125c2565b3373ffffffffffffffffffffffffffffffffffffffff167faee8e5d3bbb2f71a951b5632cee20f7ac487b9f8ab4f66a236f7694b13af7c6a82426040516109899291906136ea565b60405180910390a250565b60008060009054906101000a900473ffffffffffffffffffffffffffffffffffffffff16905090565b60008551116109f8576040517f1948eede00000000000000000000000000000000000000000000000000000000815260040160405180910390fd5b6000845111610a33576040517f28471b5000000000000000000000000000000000000000000000000000000000815260040160405180910390fd5b6000835111610a6e576040517f5a1c632800000000000000000000000000000000000000000000000000000000815260040160405180910390fd5b67016345785d8a00008211610aaf576040517fde0dbc1300000000000000000000000000000000000000000000000000000000815260040160405180910390fd5b428111610ae8576040517fda35cf2d00000000000000000000000000000000000000000000000000000000815260040160405180910390fd5b610af0612aab565b60058054905081600001818152505033816020019073ffffffffffffffffffffffffffffffffffffffff16908173ffffffffffffffffffffffffffffffffffffffff1681525050858160400181905250848160600181905250838160800181905250828160a0018181525050428160e0018181525050818161010001818152505060008161014001906004811115610b8b57610b8a612ce5565b5b90816004811115610b9f57610b9e612ce5565b5b8152505060058190806001815401808255809150506001900390600052602060002090600b02016000909190919091506000820151816000015560208201518160010160006101000a81548173ffffffffffffffffffffffffffffffffffffffff021916908373ffffffffffffffffffffffffffffffffffffffff1602179055506040820151816002019081610c3591906138d2565b506060820151816003019081610c4b91906138d2565b506080820151816004019081610c6191906138d2565b5060a0820151816005015560c0820151816006015560e082015181600701556101008201518160080155610120820151816009015561014082015181600a0160006101000a81548160ff02191690836004811115610cc257610cc1612ce5565b5b0217905550505060026000016000815480929190610cdf906139a4565b91905055503373ffffffffffffffffffffffffffffffffffffffff167faee8e5d3bbb2f71a951b5632cee20f7ac487b9f8ab4f66a236f7694b13af7c6a826000015142604051610d30929190613a38565b60405180910390a2505050505050565b60606005805480602002602001604051908101604052809291908181526020016000905b8282101561101a57838290600052602060002090600b020160405180610160016040529081600082015481526020016001820160009054906101000a900473ffffffffffffffffffffffffffffffffffffffff1673ffffffffffffffffffffffffffffffffffffffff1673ffffffffffffffffffffffffffffffffffffffff168152602001600282018054610df890613604565b80601f0160208091040260200160405190810160405280929190818152602001828054610e2490613604565b8015610e715780601f10610e4657610100808354040283529160200191610e71565b820191906000526020600020905b815481529060010190602001808311610e5457829003601f168201915b50505050508152602001600382018054610e8a90613604565b80601f0160208091040260200160405190810160405280929190818152602001828054610eb690613604565b8015610f035780601f10610ed857610100808354040283529160200191610f03565b820191906000526020600020905b815481529060010190602001808311610ee657829003601f168201915b50505050508152602001600482018054610f1c90613604565b80601f0160208091040260200160405190810160405280929190818152602001828054610f4890613604565b8015610f955780601f10610f6a57610100808354040283529160200191610f95565b820191906000526020600020905b815481529060010190602001808311610f7857829003601f168201915b505050505081526020016005820154815260200160068201548152602001600782015481526020016008820154815260200160098201548152602001600a820160009054906101000a900460ff166004811115610ff557610ff4612ce5565b5b600481111561100757611006612ce5565b5b8152505081526020019060010190610d64565b50505050905090565b600580549050811115611062576040517fcbe7e4f900000000000000000000000000000000000000000000000000000000815260040160405180910390fd5b3373ffffffffffffffffffffffffffffffffffffffff166005828154811061108d5761108c6135a6565b5b90600052602060002090600b020160010160009054906101000a900473ffffffffffffffffffffffffffffffffffffffff1673ffffffffffffffffffffffffffffffffffffffff161415801561111657506110e6610994565b73ffffffffffffffffffffffffffffffffffffffff163373ffffffffffffffffffffffffffffffffffffffff1614155b1561114d576040517f93a55c3800000000000000000000000000000000000000000000000000000000815260040160405180910390fd5b6001600481111561116157611160612ce5565b5b60058281548110611175576111746135a6565b5b90600052602060002090600b0201600a0160009054906101000a900460ff1660048111156111a6576111a5612ce5565b5b146111dd576040517f4473db6200000000000000000000000000000000000000000000000000000000815260040160405180910390fd5b6111e681612880565b50565b6111f1612b2d565b60026040518060600160405290816000820154815260200160018201548152602001600282015481525050905090565b600580549050811115611260576040517fcbe7e4f900000000000000000000000000000000000000000000000000000000815260040160405180910390fd5b6000600481111561127457611273612ce5565b5b60058281548110611288576112876135a6565b5b90600052602060002090600b0201600a0160009054906101000a900460ff1660048111156112b9576112b8612ce5565b5b1415801561131e5750600160048111156112d6576112d5612ce5565b5b600582815481106112ea576112e96135a6565b5b90600052602060002090600b0201600a0160009054906101000a900460ff16600481111561131b5761131a612ce5565b5b14155b15611355576040517f5afc90a200000000000000000000000000000000000000000000000000000000815260040160405180910390fd5b426005828154811061136a576113696135a6565b5b90600052602060002090600b02016008015410156113b4576040517f98e885a100000000000000000000000000000000000000000000000000000000815260040160405180910390fd5b600034116113ee576040517f893a7fcf00000000000000000000000000000000000000000000000000000000815260040160405180910390fd5b3460058281548110611403576114026135a6565b5b90600052602060002090600b020160060160008282546114239190613a74565b925050819055506001600582815481106114405761143f6135a6565b5b90600052602060002090600b020160090160008282546114609190613a74565b9250508190555061146f612b4e565b33816000019073ffffffffffffffffffffffffffffffffffffffff16908173ffffffffffffffffffffffffffffffffffffffff1681525050348160200181815250504281604001818152505060008160600190151590811515815250506006600083815260200190815260200160002081908060018154018082558091505060019003906000526020600020906004020160009091909190915060008201518160000160006101000a81548173ffffffffffffffffffffffffffffffffffffffff021916908373ffffffffffffffffffffffffffffffffffffffff160217905550602082015181600101556040820151816002015560608201518160030160006101000a81548160ff02191690831515021790555050506002600101600081548092919061159c906139a4565b9190505550346002800160008282546115b59190613a74565b925050819055503373ffffffffffffffffffffffffffffffffffffffff167faee8e5d3bbb2f71a951b5632cee20f7ac487b9f8ab4f66a236f7694b13af7c6a8342604051611604929190613af4565b60405180910390a2600582815481106116205761161f6135a6565b5b90600052602060002090600b02016005015460058381548110611646576116456135a6565b5b90600052602060002090600b020160060154106116ac57600160058381548110611673576116726135a6565b5b90600052602060002090600b0201600a0160006101000a81548160ff021916908360048111156116a6576116a5612ce5565b5b02179055505b5050565b60606005805490508211156116fa576040517f08c379a00000000000000000000000000000000000000000000000000000000081526004016116f190613b7c565b60405180910390fd5b60066000838152602001908152602001600020805480602002602001604051908101604052809291908181526020016000905b828210156117e457838290600052602060002090600402016040518060800160405290816000820160009054906101000a900473ffffffffffffffffffffffffffffffffffffffff1673ffffffffffffffffffffffffffffffffffffffff1673ffffffffffffffffffffffffffffffffffffffff16815260200160018201548152602001600282015481526020016003820160009054906101000a900460ff1615151515815250508152602001906001019061172d565b505050509050919050565b60058054905082111561182e576040517fcbe7e4f900000000000000000000000000000000000000000000000000000000815260040160405180910390fd5b4260058381548110611843576118426135a6565b5b90600052602060002090600b020160080154111561188d576040517f3b72060500000000000000000000000000000000000000000000000000000000815260040160405180910390fd5b600060048111156118a1576118a0612ce5565b5b600583815481106118b5576118b46135a6565b5b90600052602060002090600b0201600a0160009054906101000a900460ff1660048111156118e6576118e5612ce5565b5b1461191d576040517f27a275de00000000000000000000000000000000000000000000000000000000815260040160405180910390fd5b600060058381548110611933576119326135a6565b5b90600052602060002090600b020160090154036119e9576002600583815481106119605761195f6135a6565b5b90600052602060002090600b0201600a0160006101000a81548160ff0219169083600481111561199357611992612ce5565b5b02179055503373ffffffffffffffffffffffffffffffffffffffff167faee8e5d3bbb2f71a951b5632cee20f7ac487b9f8ab4f66a236f7694b13af7c6a83426040516119e0929190613be8565b60405180910390a25b6000805b6006600085815260200190815260200160002080549050811015611ce1578273ffffffffffffffffffffffffffffffffffffffff16600660008681526020019081526020016000208281548110611a4757611a466135a6565b5b906000526020600020906004020160000160009054906101000a900473ffffffffffffffffffffffffffffffffffffffff1673ffffffffffffffffffffffffffffffffffffffff16148015611add5750600660008581526020019081526020016000208181548110611abc57611abb6135a6565b5b906000526020600020906004020160030160009054906101000a900460ff16155b15611cce576001600660008681526020019081526020016000208281548110611b0957611b086135a6565b5b906000526020600020906004020160030160006101000a81548160ff02191690831515021790555042600660008681526020019081526020016000208281548110611b5757611b566135a6565b5b906000526020600020906004020160020181905550600660008581526020019081526020016000208181548110611b9157611b906135a6565b5b90600052602060002090600402016001015482611bae9190613a74565b9150600160026001016000828254611bc69190613c24565b92505081905550600660008581526020019081526020016000208181548110611bf257611bf16135a6565b5b906000526020600020906004020160010154600280016000828254611c179190613c24565b92505081905550600660008581526020019081526020016000208181548110611c4357611c426135a6565b5b90600052602060002090600402016001015460058581548110611c6957611c686135a6565b5b90600052602060002090600b02016006016000828254611c899190613c24565b92505081905550600160058581548110611ca657611ca56135a6565b5b90600052602060002090600b02016009016000828254611cc69190613c24565b925050819055505b8080611cd9906139a4565b9150506119ed565b5060008103611d1c576040517f208b83b800000000000000000000000000000000000000000000000000000000815260040160405180910390fd5b611d2682826129fb565b3373ffffffffffffffffffffffffffffffffffffffff167faee8e5d3bbb2f71a951b5632cee20f7ac487b9f8ab4f66a236f7694b13af7c6a8442604051611d6e929190613ca4565b60405180910390a2600060058481548110611d8c57611d8b6135a6565b5b90600052602060002090600b02016009015403611e4257600260058481548110611db957611db86135a6565b5b90600052602060002090600b0201600a0160006101000a81548160ff02191690836004811115611dec57611deb612ce5565b5b02179055503373ffffffffffffffffffffffffffffffffffffffff167faee8e5d3bbb2f71a951b5632cee20f7ac487b9f8ab4f66a236f7694b13af7c6a8442604051611e39929190613be8565b60405180910390a25b505050565b611e4f612477565b600081111580611e60575060648110155b15611e97576040517ff9c3261400000000000000000000000000000000000000000000000000000000815260040160405180910390fd5b8060018190555050565b600580549050841115611ee0576040517fcbe7e4f900000000000000000000000000000000000000000000000000000000815260040160405180910390fd5b3373ffffffffffffffffffffffffffffffffffffffff1660058581548110611f0b57611f0a6135a6565b5b90600052602060002090600b020160010160009054906101000a900473ffffffffffffffffffffffffffffffffffffffff1673ffffffffffffffffffffffffffffffffffffffff1614611f8a576040517f93a55c3800000000000000000000000000000000000000000000000000000000815260040160405180910390fd5b60006004811115611f9e57611f9d612ce5565b5b60058581548110611fb257611fb16135a6565b5b90600052602060002090600b0201600a0160009054906101000a900460ff166004811115611fe357611fe2612ce5565b5b1461201a576040517f27a275de00000000000000000000000000000000000000000000000000000000815260040160405180910390fd5b426005858154811061202f5761202e6135a6565b5b90600052602060002090600b0201600801541015612079576040517f98e885a100000000000000000000000000000000000000000000000000000000815260040160405180910390fd5b60008351116120b4576040517f1948eede00000000000000000000000000000000000000000000000000000000815260040160405180910390fd5b60008251116120ef576040517f28471b5000000000000000000000000000000000000000000000000000000000815260040160405180910390fd5b600081511161212a576040517f5a1c632800000000000000000000000000000000000000000000000000000000815260040160405180910390fd5b826005858154811061213f5761213e6135a6565b5b90600052602060002090600b0201600201908161215c91906138d2565b508160058581548110612172576121716135a6565b5b90600052602060002090600b0201600301908161218f91906138d2565b5080600585815481106121a5576121a46135a6565b5b90600052602060002090600b020160040190816121c291906138d2565b503373ffffffffffffffffffffffffffffffffffffffff167faee8e5d3bbb2f71a951b5632cee20f7ac487b9f8ab4f66a236f7694b13af7c6a854260405161220b929190613d2c565b60405180910390a250505050565b612221612477565b600073ffffffffffffffffffffffffffffffffffffffff168173ffffffffffffffffffffffffffffffffffffffff16036122935760006040517f1e4fbdf700000000000000000000000000000000000000000000000000000000815260040161228a9190612eb4565b60405180910390fd5b61229c816124fe565b50565b6005805490508111156122de576040517fcbe7e4f900000000000000000000000000000000000000000000000000000000815260040160405180910390fd5b600060048111156122f2576122f1612ce5565b5b60058281548110612306576123056135a6565b5b90600052602060002090600b0201600a0160009054906101000a900460ff16600481111561233757612336612ce5565b5b1461236e576040517f27a275de00000000000000000000000000000000000000000000000000000000815260040160405180910390fd5b4260058281548110612383576123826135a6565b5b90600052602060002090600b02016008015411156123cd576040517f3b72060500000000000000000000000000000000000000000000000000000000815260040160405180910390fd5b6002600582815481106123e3576123e26135a6565b5b90600052602060002090600b0201600a0160006101000a81548160ff0219169083600481111561241657612415612ce5565b5b0217905550612424816125c2565b3373ffffffffffffffffffffffffffffffffffffffff167faee8e5d3bbb2f71a951b5632cee20f7ac487b9f8ab4f66a236f7694b13af7c6a824260405161246c929190613be8565b60405180910390a250565b61247f612aa3565b73ffffffffffffffffffffffffffffffffffffffff1661249d610994565b73ffffffffffffffffffffffffffffffffffffffff16146124fc576124c0612aa3565b6040517f118cdaa70000000000000000000000000000000000000000000000000000000081526004016124f39190612eb4565b60405180910390fd5b565b60008060009054906101000a900473ffffffffffffffffffffffffffffffffffffffff169050816000806101000a81548173ffffffffffffffffffffffffffffffffffffffff021916908373ffffffffffffffffffffffffffffffffffffffff1602179055508173ffffffffffffffffffffffffffffffffffffffff168173ffffffffffffffffffffffffffffffffffffffff167f8be0079c531659141344cd1fd0a4f28419497f9722a3daafe3b4186f6b6457e060405160405180910390a35050565b60005b600660008381526020019081526020016000208054905081101561287c57600660008381526020019081526020016000208181548110612608576126076135a6565b5b906000526020600020906004020160030160009054906101000a900460ff16612869576001600660008481526020019081526020016000208281548110612652576126516135a6565b5b906000526020600020906004020160030160006101000a81548160ff021916908315150217905550426006600084815260200190815260200160002082815481106126a05761269f6135a6565b5b90600052602060002090600402016002018190555061274b6006600084815260200190815260200160002082815481106126dd576126dc6135a6565b5b906000526020600020906004020160000160009054906101000a900473ffffffffffffffffffffffffffffffffffffffff16600660008581526020019081526020016000208381548110612734576127336135a6565b5b9060005260206000209060040201600101546129fb565b6001600260010160008282546127619190613c24565b9250508190555060066000838152602001908152602001600020818154811061278d5761278c6135a6565b5b9060005260206000209060040201600101546002800160008282546127b29190613c24565b925050819055506006600083815260200190815260200160002081815481106127de576127dd6135a6565b5b90600052602060002090600402016001015460058381548110612804576128036135a6565b5b90600052602060002090600b020160060160008282546128249190613c24565b92505081905550600160058381548110612841576128406135a6565b5b90600052602060002090600b020160090160008282546128619190613c24565b925050819055505b8080612874906139a4565b9150506125c5565b5050565b600060646001546005848154811061289b5761289a6135a6565b5b90600052602060002090600b0201600601546128b79190613d68565b6128c19190613dd9565b9050600081600584815481106128da576128d96135a6565b5b90600052602060002090600b0201600601546128f69190613c24565b90506129476005848154811061290f5761290e6135a6565b5b90600052602060002090600b020160010160009054906101000a900473ffffffffffffffffffffffffffffffffffffffff16826129fb565b612958612952610994565b836129fb565b60046005848154811061296e5761296d6135a6565b5b90600052602060002090600b0201600a0160006101000a81548160ff021916908360048111156129a1576129a0612ce5565b5b02179055503373ffffffffffffffffffffffffffffffffffffffff167faee8e5d3bbb2f71a951b5632cee20f7ac487b9f8ab4f66a236f7694b13af7c6a84426040516129ee929190613e56565b60405180910390a2505050565b60008273ffffffffffffffffffffffffffffffffffffffff1682604051612a2190613ec3565b60006040518083038185875af1925050503d8060008114612a5e576040519150601f19603f3d011682016040523d82523d6000602084013e612a63565b606091505b5050905080612a9e576040517fb0f7411400000000000000000000000000000000000000000000000000000000815260040160405180910390fd5b505050565b600033905090565b60405180610160016040528060008152602001600073ffffffffffffffffffffffffffffffffffffffff168152602001606081526020016060815260200160608152602001600081526020016000815260200160008152602001600081526020016000815260200160006004811115612b2757612b26612ce5565b5b81525090565b60405180606001604052806000815260200160008152602001600081525090565b6040518060800160405280600073ffffffffffffffffffffffffffffffffffffffff16815260200160008152602001600081526020016000151581525090565b6000604051905090565b600080fd5b600080fd5b6000819050919050565b612bb581612ba2565b8114612bc057600080fd5b50565b600081359050612bd281612bac565b92915050565b600060208284031215612bee57612bed612b98565b5b6000612bfc84828501612bc3565b91505092915050565b612c0e81612ba2565b82525050565b600073ffffffffffffffffffffffffffffffffffffffff82169050919050565b6000612c3f82612c14565b9050919050565b612c4f81612c34565b82525050565b600081519050919050565b600082825260208201905092915050565b60005b83811015612c8f578082015181840152602081019050612c74565b60008484015250505050565b6000601f19601f8301169050919050565b6000612cb782612c55565b612cc18185612c60565b9350612cd1818560208601612c71565b612cda81612c9b565b840191505092915050565b7f4e487b7100000000000000000000000000000000000000000000000000000000600052602160045260246000fd5b60058110612d2557612d24612ce5565b5b50565b6000819050612d3682612d14565b919050565b6000612d4682612d28565b9050919050565b612d5681612d3b565b82525050565b600061016083016000830151612d756000860182612c05565b506020830151612d886020860182612c46565b5060408301518482036040860152612da08282612cac565b91505060608301518482036060860152612dba8282612cac565b91505060808301518482036080860152612dd48282612cac565b91505060a0830151612de960a0860182612c05565b5060c0830151612dfc60c0860182612c05565b5060e0830151612e0f60e0860182612c05565b50610100830151612e24610100860182612c05565b50610120830151612e39610120860182612c05565b50610140830151612e4e610140860182612d4d565b508091505092915050565b60006020820190508181036000830152612e738184612d5c565b905092915050565b612e8481612ba2565b82525050565b6000602082019050612e9f6000830184612e7b565b92915050565b612eae81612c34565b82525050565b6000602082019050612ec96000830184612ea5565b92915050565b600080fd5b600080fd5b7f4e487b7100000000000000000000000000000000000000000000000000000000600052604160045260246000fd5b612f1182612c9b565b810181811067ffffffffffffffff82111715612f3057612f2f612ed9565b5b80604052505050565b6000612f43612b8e565b9050612f4f8282612f08565b919050565b600067ffffffffffffffff821115612f6f57612f6e612ed9565b5b612f7882612c9b565b9050602081019050919050565b82818337600083830152505050565b6000612fa7612fa284612f54565b612f39565b905082815260208101848484011115612fc357612fc2612ed4565b5b612fce848285612f85565b509392505050565b600082601f830112612feb57612fea612ecf565b5b8135612ffb848260208601612f94565b91505092915050565b600080600080600060a086880312156130205761301f612b98565b5b600086013567ffffffffffffffff81111561303e5761303d612b9d565b5b61304a88828901612fd6565b955050602086013567ffffffffffffffff81111561306b5761306a612b9d565b5b61307788828901612fd6565b945050604086013567ffffffffffffffff81111561309857613097612b9d565b5b6130a488828901612fd6565b93505060606130b588828901612bc3565b92505060806130c688828901612bc3565b9150509295509295909350565b600081519050919050565b600082825260208201905092915050565b6000819050602082019050919050565b6000610160830160008301516131186000860182612c05565b50602083015161312b6020860182612c46565b50604083015184820360408601526131438282612cac565b9150506060830151848203606086015261315d8282612cac565b915050608083015184820360808601526131778282612cac565b91505060a083015161318c60a0860182612c05565b5060c083015161319f60c0860182612c05565b5060e08301516131b260e0860182612c05565b506101008301516131c7610100860182612c05565b506101208301516131dc610120860182612c05565b506101408301516131f1610140860182612d4d565b508091505092915050565b600061320883836130ff565b905092915050565b6000602082019050919050565b6000613228826130d3565b61323281856130de565b935083602082028501613244856130ef565b8060005b85811015613280578484038952815161326185826131fc565b945061326c83613210565b925060208a01995050600181019050613248565b50829750879550505050505092915050565b600060208201905081810360008301526132ac818461321d565b905092915050565b6060820160008201516132ca6000850182612c05565b5060208201516132dd6020850182612c05565b5060408201516132f06040850182612c05565b50505050565b600060608201905061330b60008301846132b4565b92915050565b600081519050919050565b600082825260208201905092915050565b6000819050602082019050919050565b60008115159050919050565b6133528161333d565b82525050565b60808201600082015161336e6000850182612c46565b5060208201516133816020850182612c05565b5060408201516133946040850182612c05565b5060608201516133a76060850182613349565b50505050565b60006133b98383613358565b60808301905092915050565b6000602082019050919050565b60006133dd82613311565b6133e7818561331c565b93506133f28361332d565b8060005b8381101561342357815161340a88826133ad565b9750613415836133c5565b9250506001810190506133f6565b5085935050505092915050565b6000602082019050818103600083015261344a81846133d2565b905092915050565b61345b81612c34565b811461346657600080fd5b50565b60008135905061347881613452565b92915050565b6000806040838503121561349557613494612b98565b5b60006134a385828601612bc3565b92505060206134b485828601613469565b9150509250929050565b600080600080608085870312156134d8576134d7612b98565b5b60006134e687828801612bc3565b945050602085013567ffffffffffffffff81111561350757613506612b9d565b5b61351387828801612fd6565b935050604085013567ffffffffffffffff81111561353457613533612b9d565b5b61354087828801612fd6565b925050606085013567ffffffffffffffff81111561356157613560612b9d565b5b61356d87828801612fd6565b91505092959194509250565b60006020828403121561358f5761358e612b98565b5b600061359d84828501613469565b91505092915050565b7f4e487b7100000000000000000000000000000000000000000000000000000000600052603260045260246000fd5b7f4e487b7100000000000000000000000000000000000000000000000000000000600052602260045260246000fd5b6000600282049050600182168061361c57607f821691505b60208210810361362f5761362e6135d5565b5b50919050565b7f4e487b7100000000000000000000000000000000000000000000000000000000600052601160045260246000fd5b600061366f82612ba2565b91506000820361368257613681613635565b5b600182039050919050565b600082825260208201905092915050565b7f43616d706169676e2044656c6574656400000000000000000000000000000000600082015250565b60006136d460108361368d565b91506136df8261369e565b602082019050919050565b60006060820190506136ff6000830185612e7b565b8181036020830152613710816136c7565b905061371f6040830184612e7b565b9392505050565b60008190508160005260206000209050919050565b60006020601f8301049050919050565b600082821b905092915050565b6000600883026137887fffffffffffffffffffffffffffffffffffffffffffffffffffffffffffffffff8261374b565b613792868361374b565b95508019841693508086168417925050509392505050565b6000819050919050565b60006137cf6137ca6137c584612ba2565b6137aa565b612ba2565b9050919050565b6000819050919050565b6137e9836137b4565b6137fd6137f5826137d6565b848454613758565b825550505050565b600090565b613812613805565b61381d8184846137e0565b505050565b5b818110156138415761383660008261380a565b600181019050613823565b5050565b601f8211156138865761385781613726565b6138608461373b565b8101602085101561386f578190505b61388361387b8561373b565b830182613822565b50505b505050565b600082821c905092915050565b60006138a96000198460080261388b565b1980831691505092915050565b60006138c28383613898565b9150826002028217905092915050565b6138db82612c55565b67ffffffffffffffff8111156138f4576138f3612ed9565b5b6138fe8254613604565b613909828285613845565b600060209050601f83116001811461393c576000841561392a578287015190505b61393485826138b6565b86555061399c565b601f19841661394a86613726565b60005b828110156139725784890151825560018201915060208501945060208101905061394d565b8683101561398f578489015161398b601f891682613898565b8355505b6001600288020188555050505b505050505050565b60006139af82612ba2565b91507fffffffffffffffffffffffffffffffffffffffffffffffffffffffffffffffff82036139e1576139e0613635565b5b600182019050919050565b7f43616d706169676e204372656174656400000000000000000000000000000000600082015250565b6000613a2260108361368d565b9150613a2d826139ec565b602082019050919050565b6000606082019050613a4d6000830185612e7b565b8181036020830152613a5e81613a15565b9050613a6d6040830184612e7b565b9392505050565b6000613a7f82612ba2565b9150613a8a83612ba2565b9250828201905080821115613aa257613aa1613635565b5b92915050565b7f43616d706169676e204261636b65640000000000000000000000000000000000600082015250565b6000613ade600f8361368d565b9150613ae982613aa8565b602082019050919050565b6000606082019050613b096000830185612e7b565b8181036020830152613b1a81613ad1565b9050613b296040830184612e7b565b9392505050565b7f43616d706169676e20646f6573206e6f74206578697374000000000000000000600082015250565b6000613b6660178361368d565b9150613b7182613b30565b602082019050919050565b60006020820190508181036000830152613b9581613b59565b9050919050565b7f43616d706169676e204578706972656400000000000000000000000000000000600082015250565b6000613bd260108361368d565b9150613bdd82613b9c565b602082019050919050565b6000606082019050613bfd6000830185612e7b565b8181036020830152613c0e81613bc5565b9050613c1d6040830184612e7b565b9392505050565b6000613c2f82612ba2565b9150613c3a83612ba2565b9250828203905081811115613c5257613c51613635565b5b92915050565b7f4261636b657220436c61696d656420526566756e640000000000000000000000600082015250565b6000613c8e60158361368d565b9150613c9982613c58565b602082019050919050565b6000606082019050613cb96000830185612e7b565b8181036020830152613cca81613c81565b9050613cd96040830184612e7b565b9392505050565b7f43616d706169676e205570646174656400000000000000000000000000000000600082015250565b6000613d1660108361368d565b9150613d2182613ce0565b602082019050919050565b6000606082019050613d416000830185612e7b565b8181036020830152613d5281613d09565b9050613d616040830184612e7b565b9392505050565b6000613d7382612ba2565b9150613d7e83612ba2565b9250828202613d8c81612ba2565b91508282048414831517613da357613da2613635565b5b5092915050565b7f4e487b7100000000000000000000000000000000000000000000000000000000600052601260045260246000fd5b6000613de482612ba2565b9150613def83612ba2565b925082613dff57613dfe613daa565b5b828204905092915050565b7f43616d706169676e2050616964204f7574000000000000000000000000000000600082015250565b6000613e4060118361368d565b9150613e4b82613e0a565b602082019050919050565b6000606082019050613e6b6000830185612e7b565b8181036020830152613e7c81613e33565b9050613e8b6040830184612e7b565b9392505050565b600081905092915050565b50565b6000613ead600083613e92565b9150613eb882613e9d565b600082019050919050565b6000613ece82613ea0565b915081905091905056fea2646970667358221220e6d32af11cd9de5937c883441d11dac53dcd373c3569e6461bda5bd19f82ef1164736f6c63430008140033",
  "linkReferences": {},
  "deployedLinkReferences": {}
}